:0300000002007A81
:0C007A00787FE4F6D8FD758107020003D2
:10000300E4FFFEFDC294D293D292D291C29075893D
:1000130001758CB8F58AD28CED702E308DFAC28DB5
:10002300758CB8F58A0FEFC3943240EC7401A806BF
:10003300088002C333D8FCF4F580E4FF0EEEC394CA
:100043000740D5E4FE7D0180CF308DCCC28D758C09
:10005300B8E4F58A0FEFC3943240BD7480A8060854
:100063008002C313D8FCF4F580E4FF0EEEC39407BB
:0700730040A6E4FEFD80A1A0
:00000001FF
