:03000000020142B8
:0C014200787FE4F6D8FD75810A0201897F
:1001CE00FFFFFFFFFFFFFFFF999999999981C3FFE9
:1001DE009900000081C3E7FFC3E7E7E7E7E7C3FF46
:0801EE00FFFFFFFFFFFFFFFF11
:09020B00010800010900010A1FAD
:1001F600C294C293D2AFD2A9758901758CFC758A57
:0502060067D28C80FEB0
:03000B0002000EE2
:10000E00C0E0C083C082C0D075D000C000C006C0A2
:01001E0007DA
:10001F00758CFC758A677580FFE508B4080040038E
:10002F00020119900039F828287302005102006A62
:10003F0002008302009B0200B30200CB0200E30226
:10004F0000FBC292C291C2900508AF0AEF3395E050
:10005F00FE74CE2FF5827401020112C292C291D2A8
:10006F00900508AF0AEF3395E0FE74CF2FF5827439
:10007F0001020112C292D291C2900508AF0AEF336A
:10008F0095E0FE74D02FF58274018077C292D291E1
:10009F00D2900508AF0AEF3395E0FE74D12FF582A9
:1000AF007401805FD292C291C2900508AF0AEF33FC
:1000BF0095E0FE74D22FF58274018047D292C291DF
:1000CF00D2900508AF0AEF3395E0FE74D32FF58277
:1000DF007401802FD292D291C2900508AF0AEF33EC
:1000EF0095E0FE74D42FF58274018017D292D291CD
:1000FF00D290750800AF0AEF3395E0FE74D52FF557
:10010F008274013EF583E493F5800509E509C394F4
:10011F00FA4011750900150AD3E50A6480948050DE
:04012F0003750A1F2B
:0F013300D007D006D000D0D0D082D083D0E03219
:10014E000201F6E493A3F8E493A34003F68001F2D0
:10015E0008DFF48029E493A3F85407240CC8C333B2
:10016E00C4540F4420C8834004F456800146F6DF81
:10017E00E4800B010204081020408090020BE47E04
:10018E00019360BCA3FF543F30E509541FFEE49376
:10019E00A360010ECF54C025E060A840B8E493A33D
:1001AE00FAE493A3F8E493A3C8C582C8CAC583CA68
:1001BE00F0A3C8C582C8CAC583CADFE9DEE780BE20
:0102140000E9
:00000001FF
