:030000000201E911
:0C01E900787FE4F6D8FD75810C0202302E
:10027500C0F9A4B0999282F88090C381999999990F
:1002850081C3EFE7E3E7E7E7E7C3C3819D87C3F9E9
:10029500C181C3819DC7C79D81C3CFC7C3C9C9815B
:1002A500CFCF81C1F9C3879D81C3C381F9C181992D
:1002B50081C381819FCFCFE7E7E7C38199C3C39905
:0A02C50081C3C3819981839F83C127
:0D02E20001080002090000010B00010CFFE3
:1002CF00C294D2AFD2A9758901758CFC758A67D299
:0302DF008C80FE12
:03000B0002000EE2
:10000E00C0E0C0F0C083C082C0D075D000C000C0B8
:01001E0007DA
:10001F00758CFC758A677580FFE508B40F00400387
:10002F00020192900039F828287302006602006CD2
:10003F0002007202007A02008202008C02009E020D
:10004F0000BB0200D80200F502011102012D0201CE
:10005F0049020165020184D293C292801AD293C2DF
:10006F0092801ED293C292D291800ED293C292D21C
:10007F00918010D293D292C291C2908008D293D223
:10008F0092C291D2900508E50B90027502017FC2D2
:10009F0093C292C291C2900508E50B75F008A42493
:1000AF007FF582E43402F583E402017FC293C292AA
:1000BF00C291D2900508E50B75F008A42480F58253
:1000CF00E43402F583E402017FC293C292D291C25B
:1000DF00900508E50B75F008A42481F582E434023D
:1000EF00F583E402017FC293C292D291D2900508A8
:1000FF00E50B75F008A42482F582E43402F583E45D
:10010F00806EC293D292C291C2900508E50B75F032
:10011F0008A42483F582E43402F583E48052C29369
:10012F00D292C291D2900508E50B75F008A42484F1
:10013F00F582E43402F583E48036C293D292D291F1
:10014F00C2900508E50B75F008A42485F582E43408
:10015F0002F583E4801AC293D292D291D29005080D
:10016F00E50B75F008A42486F582E43402F583E4E8
:10017F0093F580800ED293D292D291C290750800DF
:10018F00850C80050AE50A70020509C394E8E509A4
:10019F0094034037750900750A00050BE50B7005D0
:1001AF00750CFF801CE50BB40905750C008012E57A
:1001BF000B14FF7401A807088002C333D8FCF4F5B1
:0B01CF000CE50BC3940A4003750B0005
:0F01DA00D007D000D0D0D082D083D0F0D0E03288
:1001F5000202CFE493A3F8E493A34003F68001F24F
:1002050008DFF48029E493A3F85407240CC8C3330A
:10021500C4540F4420C8834004F456800146F6DFD9
:10022500E4800B01020408102040809002E2E47E85
:10023500019360BCA3FF543F30E509541FFEE493CE
:10024500A360010ECF54C025E060A840B8E493A395
:10025500FAE493A3F8E493A3C8C582C8CAC583CAC0
:10026500F0A3C8C582C8CAC583CADFE9DEE780BE78
:0102EF00000E
:00000001FF
