:0300000002039167
:0C039100787FE4F6D8FD75811B0203D8CC
:10041D00C0F9A4B0999282F880908883C6A1868E87
:06042D00000000000000C9
:10043300060BFFFFFFFFFFFF020900000111000190
:020443000800AF
:1001D200E4F515F514F513F51278167C00FD7BFF96
:1001E2007A04792DFE7F061200DE7F05C294D29337
:1001F200D2AFD2A9758901758CFC758A67D28CE55C
:1002020008B401FBE4F508E5152401F515E43514FD
:10021200F514E43513F513E43512F512E47B0AFA0A
:10022200F9F8AF15AE14AD13AC12120140AF038F43
:1002320016E47B0AFAF9F8AF15AE14AD13AC12123C
:100242000140E47B0AFAF9F8120140AF038F17E488
:100252007B64FAF9F8AF15AE14AD13AC121201407B
:10026200E47B0AFAF9F8120140AF038F18E47BE845
:100272007A03F9F8AF15AE14AD13AC12120140E4D3
:100282007B0AFAF9F8120140AF038F19E47B107A66
:1002920027F9F8AF15AE14AD13AC12120140E47B8E
:1002A2000AFAF9F8120140AF038F1A7BA07A867915
:1002B200017800AF15AE14AD13AC12120140E47B0D
:1002C2000AFAF9F8120140AF038F1B7F0574162F4B
:1002D200F8E6700F740B2FF876FF1FC3EF6480945B
:1002E2008050EAC3EF6480948050030202017416C6
:1002F2002FF8E690041D93FE740B2FF8A6061F80BC
:01030200E218
:03000B00020303EA
:10030300C0E0C0D0758CFC758A67050AE50A7002E7
:100313000509C394E8E50994034009750900750AC2
:10032300007508017580FFE51114601D1460271422
:10033300603114603B1460452405704DC292C29134
:10034300C2900511850B808040C292C291D2900564
:1003530011850C808033C292D291C2900511850D14
:10036300808026C292D291D2900511850E80801989
:10037300D292C291C2900511850F80800CD292C295
:0E03830091D290751100851080D0D0D0E0325C
:10039D000201D2E493A3F8E493A34003F68001F2A3
:1003AD0008DFF48029E493A3F85407240CC8C33361
:1003BD00C4540F4420C8834004F456800146F6DF30
:1003CD00E4800B0102040810204080900433E47E89
:1003DD00019360BCA3FF543F30E509541FFEE49325
:1003ED00A360010ECF54C025E060A840B8E493A3EC
:1003FD00FAE493A3F8E493A3C8C582C8CAC583CA17
:10040D00F0A3C8C582C8CAC583CADFE9DEE780BECE
:0104450000B6
:10000E00E709F608DFFA8046E709F208DFFA803ED4
:10001E0088828C83E709F0A3DFFA8032E309F608C1
:10002E00DFFA8078E309F208DFFA807088828C8329
:10003E00E309F0A3DFFA806489828A83E0A3F608DD
:10004E00DFFA805889828A83E0A3F208DFFA804CB7
:10005E0080D280FA80C680D4806980F2803380108E
:10006E0080A680EA809A80A880DA80E280CA8033F7
:10007E0089828A83ECFAE493A3C8C582C8CCC5836F
:10008E00CCF0A3C8C582C8CCC583CCDFE9DEE7803F
:10009E000D89828A83E493A3F608DFF9ECFAA9F0BE
:1000AE00EDFB2289828A83ECFAE0A3C8C582C8CC14
:1000BE00C583CCF0A3C8C582C8CCC583CCDFEADE2D
:1000CE00E880DB89828A83E493A3F208DFF980CC8F
:1000DE0088F0EF60010E4E60C388F0ED2402B40488
:1000EE000050B9F582EB2402B4040050AF2323452F
:0600FE00822390005E73F6
:1001040075F008758200EF2FFFEE33FECD33CDCCB2
:1001140033CCC58233C5829BED9AEC99E582984035
:100124000CF582EE9BFEED9AFDEC99FC0FD5F0D612
:10013400E4CEFBE4CDFAE4CCF9A88222B800C1B93C
:100144000059BA002DEC8BF084CFCECDFCE5F0CB7A
:10015400F97818EF2FFFEE33FEED33FDEC33FCEBB3
:1001640033FB10D703994004EB99FB0FD8E5E4F96E
:10017400FA227818EF2FFFEE33FEED33FDEC33FC5B
:10018400C933C910D7059BE99A4007EC9BFCE99A4F
:10019400F90FD8E0E4C9FAE4CCFB2275F010EF2F94
:1001A400FFEE33FEED33FDCC33CCC833C810D70794
:1001B4009BEC9AE899400AED9BFDEC9AFCE899F8CF
:0E01C4000FD5F0DAE4CDFBE4CCFAE4C8F92262
:00000001FF
