:03000000020115E5
:0C011500787FE4F6D8FD75810702000336
:10000300C294D293D292D291C290C280E4FEFF0FE7
:10001300BF00010EBE75F8BF30F5D280E4FEFF0FBE
:10002300BF00010EBE75F8BF30F5C281E4FEFF0FBD
:10003300BF00010EBE75F8BF30F5D281E4FEFF0F9D
:10004300BF00010EBE75F8BF30F5C282E4FEFF0F9C
:10005300BF00010EBE75F8BF30F5D282E4FEFF0F7C
:10006300BF00010EBE75F8BF30F5C283E4FEFF0F7B
:10007300BF00010EBE75F8BF30F5D283E4FEFF0F5B
:10008300BF00010EBE75F8BF30F5C284E4FEFF0F5A
:10009300BF00010EBE75F8BF30F5D284E4FEFF0F3A
:1000A300BF00010EBE75F8BF30F5C285E4FEFF0F39
:1000B300BF00010EBE75F8BF30F5D285E4FEFF0F19
:1000C300BF00010EBE75F8BF30F5C286E4FEFF0F18
:1000D300BF00010EBE75F8BF30F5D286E4FEFF0FF8
:1000E300BF00010EBE75F8BF30F5C287E4FEFF0FF7
:1000F300BF00010EBE75F8BF30F5D287E4FEFFC323
:10010300EF9430EE9475400302000D0FBF00010E13
:0201130080ED7D
:00000001FF
