:030000000202A752
:0C02A700787FE4F6D8FD7581150202EEA8
:10033300C0F9A4B0999282F880908883C6A1868E72
:10000300060BFFFFFFFFFFFF0209000001110001C4
:020013000800E3
:10001E0075153F75144275130F751200C294D29365
:10002E00D2AFD2AB758910758DFC758B67D28EE50C
:10003E0008B401FBE4F508E51524FFF515E51434C5
:10004E00FFF514E51334FFF513E51234FFF512E452
:10005E007B0AFAF9F8AF15AE14AD13AC1212018784
:10006E0074332BF58274033AF583E493F50BE47B3A
:10007E000AFAF9F8AF15AE14AD13AC12120187E4FB
:10008E007B0AFAF9F812018774332BF58274033A5E
:10009E00F583E493F50CE47B64FAF9F8AF15AE142E
:1000AE00AD13AC12120187E47B0AFAF9F81201873C
:1000BE0074332BF58274033AF583E493F50DE47BE8
:1000CE00E87A03F9F8AF15AE14AD13AC121201872E
:1000DE00E47B0AFAF9F812018774332BF582740364
:1000EE003AF583E493F50EE47B107A27F9F8AF1511
:1000FE00AE14AD13AC12120187E47B0AFAF9F812B2
:10010E00018774332BF58274033AF583E493F50F6C
:10011E007BA07A8679017800AF15AE14AD13AC12C0
:10012E00120187E47B0AFAF9F812018774332BF572
:0D013E008274033AF583E493F51002003D4E
:03001B00020219C5
:10021900C0E0C0D0758DFC758B67050AE50A7002D0
:100229000509C394E8E50994034009750900750AAD
:10023900007508017580FFE51114601D146027140D
:10024900603114603B1460452405704DC292C2911F
:10025900C2900511850B808040C292C291D290054F
:1002690011850C808033C292D291C2900511850DFF
:10027900808026C292D291D2900511850E80801974
:10028900D292C291C2900511850F80800CD292C280
:0E02990091D290751100851080D0D0D0E03247
:1002B30002001EE493A3F8E493A34003F68001F243
:1002C30008DFF48029E493A3F85407240CC8C3334C
:1002D300C4540F4420C8834004F456800146F6DF1B
:1002E300E4800B0102040810204080900003E47EA8
:1002F300019360BCA3FF543F30E509541FFEE49310
:10030300A360010ECF54C025E060A840B8E493A3D6
:10031300FAE493A3F8E493A3C8C582C8CAC583CA01
:10032300F0A3C8C582C8CAC583CADFE9DEE780BEB9
:0100150000EA
:10014B0075F008758200EF2FFFEE33FECD33CDCC6B
:10015B0033CCC58233C5829BED9AEC99E5829840EE
:10016B000CF582EE9BFEED9AFDEC99FC0FD5F0D6CB
:10017B00E4CEFBE4CDFAE4CCF9A88222B800C1B9F5
:10018B000059BA002DEC8BF084CFCECDFCE5F0CB33
:10019B00F97818EF2FFFEE33FEED33FDEC33FCEB6C
:1001AB0033FB10D703994004EB99FB0FD8E5E4F927
:1001BB00FA227818EF2FFFEE33FEED33FDEC33FC14
:1001CB00C933C910D7059BE99A4007EC9BFCE99A08
:1001DB00F90FD8E0E4C9FAE4CCFB2275F010EF2F4D
:1001EB00FFEE33FEED33FDCC33CCC833C810D7074D
:1001FB009BEC9AE899400AED9BFDEC9AFCE899F888
:0E020B000FD5F0DAE4CDFBE4CCFAE4C8F9221A
:00000001FF
